{
    "_format": "hh-sol-artifact-1",
    "contractName": "Airdrop",
    "sourceName": "contracts/Airdrop.sol",
    "abi": [
        {
            "constant": true,
            "inputs": [],
            "name": "ijm",
            "outputs": [
                {
                    "name": "",
                    "type": "address"
                }
            ],
            "payable": false,
            "stateMutability": "view",
            "type": "function"
        },
        {
            "constant": false,
            "inputs": [
                {
                    "name": "to",
                    "type": "address[]"
                },
                {
                    "name": "amount",
                    "type": "uint256"
                }
            ],
            "name": "airdrop",
            "outputs": [],
            "payable": true,
            "stateMutability": "payable",
            "type": "function"
        },
        {
            "inputs": [
                {
                    "name": "_ijm",
                    "type": "address"
                }
            ],
            "payable": false,
            "stateMutability": "nonpayable",
            "type": "constructor"
        }
    ],
    "bytecode": "0x608060405234801561001057600080fd5b506040516020806103b68339810180604052602081101561003057600080fd5b8101908080519060200190929190505050806000806101000a81548173ffffffffffffffffffffffffffffffffffffffff021916908373ffffffffffffffffffffffffffffffffffffffff16021790555050610325806100916000396000f3fe6080604052600436106100295760003560e01c8063110d40251461002e578063c204642c14610085575b600080fd5b34801561003a57600080fd5b50610043610108565b604051808273ffffffffffffffffffffffffffffffffffffffff1673ffffffffffffffffffffffffffffffffffffffff16815260200191505060405180910390f35b6101066004803603604081101561009b57600080fd5b81019080803590602001906401000000008111156100b857600080fd5b8201836020820111156100ca57600080fd5b803590602001918460208302840111640100000000831117156100ec57600080fd5b90919293919293908035906020019092919050505061012d565b005b6000809054906101000a900473ffffffffffffffffffffffffffffffffffffffff1681565b600083839050905060008090505b8181101561026a576000809054906101000a900473ffffffffffffffffffffffffffffffffffffffff1673ffffffffffffffffffffffffffffffffffffffff1663a9059cbb86868481811061018c57fe5b9050602002013573ffffffffffffffffffffffffffffffffffffffff16856040518363ffffffff1660e01b8152600401808373ffffffffffffffffffffffffffffffffffffffff1673ffffffffffffffffffffffffffffffffffffffff16815260200182815260200192505050602060405180830381600087803b15801561021357600080fd5b505af1158015610227573d6000803e3d6000fd5b505050506040513d602081101561023d57600080fd5b81019080805190602001909291905050505061026360018261027190919063ffffffff16565b905061013b565b5050505050565b6000808284019050838110156102ef576040517f08c379a000000000000000000000000000000000000000000000000000000000815260040180806020018281038252601b8152602001807f536166654d6174683a206164646974696f6e206f766572666c6f77000000000081525060200191505060405180910390fd5b809150509291505056fea165627a7a7230582006d1e980855ddf10193f11562fb6870d703723d9773d6b36374f4d1bf92839190029",
    "linkReferences": {},
    "deployedLinkReferences": {}
}